{
  "contractName": "DappToken",
  "abi": [
    {
      "constant": true,
      "inputs": [],
      "name": "totalSupply",
      "outputs": [
        {
          "name": "",
          "type": "uint256"
        }
      ],
      "payable": false,
      "stateMutability": "view",
      "type": "function",
      "signature": "0x18160ddd"
    },
    {
      "inputs": [],
      "payable": false,
      "stateMutability": "nonpayable",
      "type": "constructor",
      "signature": "constructor"
    }
  ],
  "bytecode": "0x608060405234801561001057600080fd5b50620f4240600081905550609e806100296000396000f3fe608060405260043610603f576000357c0100000000000000000000000000000000000000000000000000000000900463ffffffff16806318160ddd146044575b600080fd5b348015604f57600080fd5b506056606c565b6040518082815260200191505060405180910390f35b6000548156fea165627a7a72305820957062d6d124140410f1a6eab170528ff099536e9a21550583ab3bda18c6c6860029",
  "source": "pragma solidity ^0.5.0;\r\n\r\ncontract DappToken {\r\n\t// contstructor\r\n\tuint public totalSupply;\r\n\tconstructor() public {\r\n\t\ttotalSupply = 1000000;\r\n\r\n\t}\r\n\r\n\t// set the total number of tokens\r\n\t// get the total number of tokens\r\n}",
  "sourcePath": "D:/BlockChain/DappToken/token_sale/contracts/DappToken.sol",
  "compiler": {
    "name": "solc",
    "version": "0.5.0+commit.1d4f565a.Emscripten.clang"
  },
  "schemaVersion": "3.0.3",
  "updatedAt": "2019-03-15T08:19:48.672Z",
  "devdoc": {
    "methods": {}
  },
  "userdoc": {
    "methods": {}
  }
}